:1001B200E4F508F5097F017E0012026BAE08AF0973
:1001C2007C007D0A1201271202117F017E001202B9
:1001D200C57FE87E031202117F027E0012026BAE1F
:1001E20008AF097C007D0A120127AE04AF05120296
:1001F200117F017E001202C57FE87E0312021112F6
:0F0202000003EF4E60AF1200038E088F0980A635
:0402C1007F0A7E0032
:1002C500D3EF9400EE940040147D6E7C00ED1D701C
:0D02D500011CED4C70F7EF1F70E61E80E37A
:0102E20022F9
:10021100EE7053EFB40A00504D900221F828287374
:1002210002023F02024302024702024B02024F0254
:10023100025302025702025B02025F0202637580EF
:100241003F227580062275805B2275804F22758062
:10025100662275806D2275807D22758007227580EA
:0A0261007F2275806F22E4F58022F1
:10026B00EE7052EFB40A00504C90027BF8282873C2
:10027B0002029902029D0202A10202A50202A90238
:10028B0002AD0202B10202B50202B90202BD7590C3
:10029B00FF227590FE227590FD227590FB227590C2
:1002AB00F7227590EF227590DF227590BF22759023
:0602BB007F22E4F5902211
:1000030075A0BFAFA0750A008F0B530B0F750A00C5
:10001300E50B640F450A60481202C1AFA0750A00E0
:100023008F0B530B0F750A00E50B640F450A603005
:10003300AFA0750A008F0BE50A7025E50B24456018
:100043001024FE6011146013240770147E007F01D6
:10005300227E007F02227E007F03227E007F042215
:1000630075A0DFAFA0750A008F0B530B0F750A0045
:10007300E50B640F450A60481202C1AFA0750A0080
:100083008F0B530B0F750A00E50B640F450A6030A5
:10009300AFA0750A008F0BE50A7025E50B242560D8
:1000A3001024FE6011146013240770147E007F0572
:1000B300227E007F06227E007F07227E007F0822A9
:1000C30075A0EFAFA0750A008F0B530B0F750A00D5
:1000D300E50B640F450A60481202C1AFA0750A0020
:1000E3008F0B530B0F750A00E50B640F450A603045
:1000F300AFA0750A008F0BE50A7025E50B24156088
:100103001024FE6011146013240770147E007F090D
:10011300227E007F0A227E007F0B227E007F0C223C
:03012300E4FEFFF8
:0101260022B6
:030000000202E316
:0C02E300787FE4F6D8FD75810B0201B2B3
:10012700C2D5EC30E709B2D5E4C39DFDE49CFCEEF3
:1001370030E715B2D5E4C39FFFE49EFE12015DC30D
:10014700E49DFDE49CFC800312015D30D507C3E408
:060157009FFFE49EFE2262
:10015D00BC000BBE0029EF8DF084FFADF022E4CC86
:10016D00F875F008EF2FFFEE33FEEC33FCEE9DEC4F
:10017D00984005FCEE9DFE0FD5F0E9E4CEFD22ED95
:10018D00F8F5F0EE8420D21CFEADF075F008EF2FDF
:10019D00FFED33FD4007985006D5F0F222C398FDD0
:0501AD000FD5F0EA226D
:00000001FF
