:1000AF00750800750901AF09AE08120059AF09AE06
:1000BF00081200037F017E001200E0E4F5800509BD
:1000CF00E50970020508D39408E508940040D7802D
:0100DF00CF51
:1000E000D3EF9400EE940040147D6E7C00ED1D7003
:0D00F000011CED4C70F7EF1F70E61E80E361
:0100FD0022E0
:10000300EE7052EFB40A00504C900013F828287396
:1000130002003102003502003902003D02004102B4
:10002300004502004902004D02005102005575804F
:100033003F227580062275805B2275804F22758072
:10004300662275806D2275807D22758007227580FA
:060053007F2275806F2280
:10005900EE7052EFB40A00504C900069F8282873EA
:1000690002008702008B02008F02009302009702B0
:10007900009B02009F0200A30200A70200AB75903B
:10008900FF227590FE227590FD227590FB227590D6
:10009900F7227590EF227590DF227590BF22759037
:0600A9007F22E4F5902225
:030000000200FEFD
:0C00FE00787FE4F6D8FD7581090200AFA0
:00000001FF
