:10005900E4F508F509AF09AE081200037FF47E0143
:1000690012007F0509E50970020508D39409E5081E
:06007900940040E180DA72
:10007F00D3EF9400EE940040147DFF7C00ED1D70D3
:0D008F00011CED4C70F7EF1F70E61E80E3C2
:01009C002241
:10000300EE7052EFB40A00504C900013F828287396
:1000130002003102003502003902003D02004102B4
:10002300004502004902004D02005102005575804F
:10003300C0227580F9227580A4227580B022758054
:10004300992275809222758082227580F8227580AC
:060053008022758090225E
:0300000002009D5E
:0C009D00787FE4F6D8FD75810902005957
:00000001FF
