:10006B004C69205A6F6E6766656E670068747470B2
:0B007B003A2F2F6C7A662E6B696D0027
:100003001200867F801200A8E4F508E50890006BD3
:1000130093FF600A1200B0050812004980ED7FC00B
:100023001200A8E4F508E50890007793FF600A1230
:0B00330000B0050812004980ED80FEBF
:0F003E008F807F057E0012004DD2A77F057E00C8
:10004D00D3EF9400EE940040147D6E7C00ED1D7096
:0D005D00011CED4C70F7EF1F70E61E80E3F4
:01006A002273
:0800A800C2A612003EC2A7220D
:0800B000D2A612003EC2A722F5
:10008600C2A77F381200A87F0C1200A87F061200B4
:06009600A87F010200A892
:0300000002009C5F
:0C009C00787FE4F6D8FD758108020003AF
:00000001FF
