:040000000C946800F4
:0C0048000C94CF000C94D0000C94D1005C
:14008C00434C532830293B4453333228302C35302C27CAB50B
:1400A000D1E9CAD2C3C5BDFBCFB5CDB3272C31293B44533102
:1400B400362836352C3130302C27CFD4CABEC4A3BFE9B2E291
:1400C800CAD4272C32293B00CFEFD0E1CDBFDEBFCE51D040D6
:1400DC000AEA08830024E4E4F1E011E0E434F10711F001923F
:1400F000FBCF0083ECE8F0E0A0E0B1E010E000E00BBFE03D43
:14010400F10721F0C89531960D92F9CF0E94E600FFCF2224B7
:140118002BBA2ABA28BA27BA08951801232C332420929000A9
:14012C0009B988E18AB98EE08093950008955D9BFECF0CB914
:1401400008954A935A93A80105C0FA010081F5DF4F5F5F4F2A
:14015400FA0120802220B9F759914991089522242BBA2ABA9A
:14016800CC9B03C001E010E002C00027112708954A935A9300
:14017C000AC040EB54E002C04150504040304507D9F7015086
:1401900010400030010799F7599149910895189518951895DB
:1401A400F89422242CBE20926D00B3DF05E010E0B6DF22242A
:1401B80025BE20926A002ABE29BE27BE20927D0078940895A8
:1401CC00EBDFC9DF00300107E1F700E011E0B3DFFFCF0895CF
:00000001FF
