:1001E600758910758D4CE4F58BD2AFD2ABD28E22C9
:1000A9001201E6E4F50AF50BF50875093C7F017EB6
:1000B90000120172AE08AF097C007D0A12001E12FF
:1000C900011C7F017E001201C8E4F5807F02FE1247
:1000D9000172AE08AF097C007D0A12001EAE04AFA2
:1000E9000512011C7F017E001201C8E4F580E50BB1
:1000F9006414450A70B7F50AF50BE509150970028C
:100109001508C3E5086480948050A2750800750934
:030119003C809A8D
:03001B00020003DD
:10000300C0E0758D4C758B00050BE50B7002050A7E
:03001300D0E03208
:10011C00EE7052EFB40A00504C90012CF828287362
:10012C0002014A02014E02015202015602015A0218
:10013C00015E02016202016602016A02016E7580B3
:10014C003F227580062275805B2275804F22758058
:10015C00662275806D2275807D22758007227580E0
:06016C007F2275806F2266
:10017200EE7052EFB40A00504C900182F8282873B6
:100182000201A00201A40201A80201AC0201B00214
:1001920001B40201B80201BC0201C00201C475909F
:1001A200FF227590FE227590FD227590FB227590BC
:1001B200F7227590EF227590DF227590BF2275901D
:0601C2007F22E4F590220B
:1001C800D3EF9400EE940040147D6E7C00ED1D701A
:0D01D800011CED4C70F7EF1F70E61E80E378
:0101E50022F7
:030000000201F604
:0C01F600787FE4F6D8FD75810B0200A9AB
:10001E00C2D5EC30E709B2D5E4C39DFDE49CFCEEFD
:10002E0030E715B2D5E4C39FFFE49EFE120054C321
:10003E00E49DFDE49CFC800312005430D507C3E41C
:06004E009FFFE49EFE226C
:10005400BC000BBE0029EF8DF084FFADF022E4CC90
:10006400F875F008EF2FFFEE33FEEC33FCEE9DEC59
:10007400984005FCEE9DFE0FD5F0E9E4CEFD22ED9F
:10008400F8F5F0EE8420D21CFEADF075F008EF2FE9
:10009400FFED33FD4007985006D5F0F222C398FDDA
:0500A4000FD5F0EA2277
:00000001FF
