:0400D700020800FF1C
:10008F008509A07FC87E001200B9E508C313F508E3
:10009F00E50913F509450870E78509A07FC8FE1229
:0A00AF0000B97508007509FF80D63E
:1000B900D3EF9400EE940040147DFF7C00ED1D7099
:0D00C900011CED4C70F7EF1F70E61E80E388
:0100D6002207
:03000000020003F8
:0C000300787FE4F6D8FD75810902004A00
:10000F0002008FE493A3F8E493A34003F68001F278
:10001F0008DFF48029E493A3F85407240CC8C333F2
:10002F00C4540F4420C8834004F456800146F6DFC1
:10003F00E4800B01020408102040809000D7E47E7A
:10004F00019360BCA3FF543F30E509541FFEE493B6
:10005F00A360010ECF54C025E060A840B8E493A37D
:10006F00FAE493A3F8E493A3C8C582C8CAC583CAA8
:10007F00F0A3C8C582C8CAC583CADFE9DEE780BE60
:0100DB000024
:00000001FF
