:0E000300758910758D4CE4F58BD2AFD2AB220F
:1001F700120003E4F50AF50BF508F50912001E7F56
:10020700017E001201A1AE08AF097C007D0A120031
:10021700C012014B7F017E00120290E4F5807F023D
:10022700FE1201A1AE08AF097C007D0A1200C0AE24
:1002370004AF0512014B7F017E00120290E4F580A6
:0202470080BA7B
:03001B0002024995
:10024900C0E0C0D0758D4C758B00050BE50B7002B5
:10025900050A6414450A7026F50AF50B0509E5092E
:1002690070020508643C45087004F508F509E509BC
:10027900B4FF0BE508B4FF0675080075093BD0D03B
:03028900D0E03290
:10014B00EE7052EFB40A00504C90015BF828287304
:10015B0002017902017D02018102018502018902FE
:10016B00018D02019102019502019902019D758099
:10017B003F227580062275805B2275804F22758029
:10018B00662275806D2275807D22758007227580B1
:06019B007F2275806F2237
:1001A100EE7052EFB40A00504C9001B1F828287358
:1001B1000201CF0201D30201D70201DB0201DF02FA
:1001C10001E30201E70201EB0201EF0201F3759085
:1001D100FF227590FE227590FD227590FB2275908D
:1001E100F7227590EF227590DF227590BF227590EE
:0601F1007F22E4F59022DC
:04028C007F327E003F
:10029000D3EF9400EE940040147D6E7C00ED1D7051
:0D02A000011CED4C70F7EF1F70E61E80E3AF
:0102AD00222E
:10001E0020B42D12028C20B427B2A70509E5097071
:10002E00020508643C45087004F508F509E509B4B5
:10003E00FF0BE508B4FF0675080075093B30B4FDEB
:10004E0020B52F12028C20B529B2A7E5091509702B
:10005E00021508E509643C45087004F508F509E544
:10006E0009B4FF0BE508B4FF0675080075093B30AF
:10007E00B5FD20B62C12028C20B626B2A7E4F508E8
:10008E00F509E509643C45087004F508F509E5092C
:10009E00B4FF0BE508B4FF0675080075093B30B6D2
:1000AE00FD20B70D12028C20B707B2A730B7FDB2F4
:0200BE008E2290
:030000000202AE4B
:0C02AE00787FE4F6D8FD75810B0201F7A3
:1000C000C2D5EC30E709B2D5E4C39DFDE49CFCEE5B
:1000D00030E715B2D5E4C39FFFE49EFE1200F6C3DD
:1000E000E49DFDE49CFC80031200F630D507C3E4D8
:0600F0009FFFE49EFE22CA
:1000F600BC000BBE0029EF8DF084FFADF022E4CCEE
:10010600F875F008EF2FFFEE33FEEC33FCEE9DECB6
:10011600984005FCEE9DFE0FD5F0E9E4CEFD22EDFC
:10012600F8F5F0EE8420D21CFEADF075F008EF2F46
:10013600FFED33FD4007985006D5F0F222C398FD37
:050146000FD5F0EA22D4
:00000001FF
