:040000000C947800E4
:14008C0037003500EF01FFFFFFFF0100030100050100031DDD
:1400A00000210100080401000003A100B201000804010000B9
:1400B4000013002101000402010008010004020200090100E1
:1400C800030500090100030D00110100060601000B001901BE
:1300DC0000070C000000010000293B0D0A00434C53280078
:1400F000CFEFD0E1CDBFDEBFCE51D0400AEA08830024E3E6C9
:14010400F1E011E0EB37F10711F00192FBCF0083ECE8F0E086
:14011800A0E0B1E010E000E00BBFEF3EF10721F0C8953196CE
:14012C000D92F9CF0E94AE00FFCF4A935A930AC040EB54E047
:1401400002C04150504040304507D9F7015010400030010763
:1401540099F759914991089505E010E00E94D80081E88BBBA8
:140168008ABB20C00E9473030023E1F702E011E00E9479035A
:14017C000E9473030023E1F708E813E1D6DF0E947303A02EDD
:140190000023D9F700E011E00E9479030E947303A02E002370
:1401A400D9F708E813E1C5DFDFCF08951801232C3324209233
:1401B800900009B988E18AB98EE08093950008955D9BFECFBD
:1401CC000CB908955D9BFECF509810FF01C0509A0CB90895F4
:1401E0005F9BFECF0CB108954A935F9BFECF4BB10AB12CB1B2
:1401F400842F80718C6019F00FEF1FEF04C006950170102F43
:14020800022F499108954A935A93A80105C0FA010081D6DFD1
:14021C004F5F5F4FFA0120802220B9F759914991089501C0C3
:140230000CB15F99FDCF08951801232C332420929800009300
:14024400990088E180939A008CE080939D00089520909B00F3
:1402580025FEFCCF00939C00089520909B0025FEFCCF80918E
:14026C009A008E7F80939A0010FF05C080919A0081608093B7
:140280009A0000939C00089520909B0027FEFCCF00919C009C
:1402940008954A9320909B0027FEFCCF40919B0000919A000A
:1402A80020919C00842F80718C6019F00FEF1FEF04C00695F1
:1402BC000170102F022F499108954A935A93A80105C0FA01A3
:1402D0000081C0DF4F5F5F4FFA0120802220B9F7599149914D
:1402E400089502C000919C0020909B0027FCFACF08954A93C9
:1402F80044270AC084E091E0E42FFF27E80FF91F00810E947D
:14030C002A0143954630A0F344270AC08AE091E0E42FFF2788
:14032000E80FF91F00810E942A0143954630A0F34991089514
:140334004A9344270AC084E091E0E42FFF27E80FF91F008105
:140348000E942A0143954630A0F344270AC08CE291E0E42FCC
:14035C00FF27E80FF91F00810E942A0143954730A0F349914E
:1403700008954A9344270AC084E091E0E42FFF27E80FF91FAD
:1403840000810E942A0143954630A0F344270AC083E391E02A
:14039800E42FFF27E80FF91F00810E942A0143954730A0F3D9
:1403AC00499108954A9344270AC084E091E0E42FFF27E80FAF
:1403C000F91F00810E942A0143954630A0F344270AC08AE340
:1403D40091E0E42FFF27E80FF91F00810E942A0143954630C0
:1403E800A0F3499108954A9344270AC084E091E0E42FFF27D7
:1403FC00E80FF91F00810E942A0143954630A0F344270AC07A
:1404100080E491E0E42FFF27E80FF91F00810E942A01439595
:140424004630A0F3499108954A935A93A8012297222433247B
:1404380039822882CA018070892F992780935301CA019070E6
:14044C008093540144270FC08FE491E0E42FFF27E80FF91FCE
:140460002080332448805980420C531C59824882439548303E
:1404740078F38881998180701C01232C332420925701888120
:14048800998190708093580144270AC084E091E0E42FFF2797
:14049C00E80FF91F00810E942A0143954630A0F344270AC0D9
:1404B0008FE491E0E42FFF27E80FF91F00810E942A014395E6
:1404C4004A30A0F322965991499108954A935A932E97442704
:1404D80055270AC084E091E0FA01E80FF91F00810E942A019D
:1404EC004F5F5F4F4630E0E05E0790F3442755270AC080E170
:1405000091E0FA01E80FF91F00810E942A014F5F5F4F46304C
:14051400E0E05E0790F32E965991499108954A9344270AC0F4
:1405280084E091E0E42FFF27E80FF91F00810E942A0143957C
:14053C004630A0F344270AC086E191E0E42FFF27E80FF91F4D
:1405500000810E942A0143954B30A0F3499108954A934427A4
:140564000AC084E091E0E42FFF27E80FF91F00810E942A014E
:1405780043954630A0F344270AC081E291E0E42FFF27E80F55
:14058C00F91F00810E942A0143954B30A0F3499108950E94F6
:1405A0008A03A22EC02E249780E0888389838A838B83C0925D
:1405B4004B01A0924C01AA2417C086E491E0EA2DFF27E80FB4
:1405C800F91F2080332444245524688079808A809B80620CBB
:1405DC00731C841C951C688279828A829B82A3948A2D873078
:1405F00030F340E05FEF60E070E0088119812A813B81042325
:1406040015232623372388E090E08A930E949C0300934D01F0
:140618004FEF50E060E070E0288039804A805B80242235222D
:14062C004622572220924E01AA240AC084E091E0EA2DFF272E
:14064000E80FF91F00810E942A01A3948A2D863098F3AA244C
:140654000AC086E491E0EA2DFF27E80FF91F00810E942A0153
:14066800A3948A2D893098F324960C949303AA92CA92C02ED6
:14067C00AA240AC00E94440183E691E0EA2DFF27E80FF91FC5
:140690000083A394AC14A0F3C990A9900895AA92CA92C22E92
:1406A400A02E27DE0CE0E5DF20906C012220C9F73FDE0CE097
:1406B800DEDF1DDE0CE0DBDF20906C012220C9F754DE0CE093
:1406CC00D4DF70DE0CE0D1DF2C2D0A2D62DF0CE0CCDF0027EE
:1406E000C990A9900895CC9B02C001E001C000270895AA920C
:1406F400BA9258010EE511E00E94070185010E94070109E5A1
:1407080011E00E940701B990A99008957A936A935A934A934F
:14071C00DA92CA92BA92AA920895A990B990C990D9904991BE
:1407300059916991799108950F920990002031F03695279528
:0C074400179507950A94F8CF0F900895C0
:00000001FF
