:040000000C947F00DD
:14008C00370048656C6C6F20576F726C642100EF01FFFFFFFF
:1400A000FF0100030100050100031D002101000804010000F3
:1400B40003E700F801000804010000000A001801000402011E
:1400C8000008010004020200090100030500090100030D00E7
:1400DC00110100060601000B00190100070C000000010000B8
:0D00F0000D0A00293B0D0A00434C53280067
:1400FE00CFEFD0E1CDBFDEBFCE51D0400AEA08830024E1E7BC
:14011200F1E011E0E938F10711F00192FBCF0083ECE8F0E079
:14012600A0E0B1E010E000E00BBFED3FF10721F0C8953196C1
:14013A000D92F9CF0E94A200FFCF0E944D050AE00E94C504EF
:14014E0003E00E942A0502E011E00E94130102E011E00E94EB
:1401620074012CC00E94E703402F55274134E0E05E0769F0BE
:140176004234E0E05E0771F04334E0E05E0769F04434E0E04C
:14018A005E0789F017C0002711270E94660312C00E94A80323
:14019E000FC003E00E94DB0400E011E00E94D20307C004E027
:1401B2000E94DB0402E011E00E947401D3CF089522242AB867
:1401C6002BB81801232C33242092900009B986E08093950071
:1401DA0088E18AB908955D9BFECF0CB908955D9BFECF5098F4
:1401EE0010FF01C0509A0CB908955F9BFECF0CB108954A93E3
:140202005F9BFECF4BB10AB12CB1842F80718C6019F00FEFF6
:140216001FEF04C006950170102F022F499108954A935A9345
:14022A00A80105C0FA010081D6DF4F5F5F4FFA0120802220E8
:14023E00B9F759914991089501C00CB15F99FDCF0895222476
:1402520020929A0020929B001801232C332420929800009363
:14026600990086E080939D0088E180939A00089520909B00D7
:14027A0025FEFCCF00939C00089520909B0025FEFCCF80916C
:14028E009A008E7F80939A0010FF05C080919A008160809395
:1402A2009A0000939C00089520909B0027FEFCCF00919C007A
:1402B60008954A9320909B0027FEFCCF40919B0000919A00E8
:1402CA0020919C00842F80718C6019F00FEF1FEF04C00695CF
:1402DE000170102F022F499108954A935A93A80105C0FA0181
:1402F2000081C0DF4F5F5F4FFA0120802220B9F7599149912B
:14030600089502C000919C0020909B0027FCFACF08954A93A6
:14031A0044270AC08FE091E0E42FFF27E80FF91F00810E944F
:14032E003B0143954630A0F344270AC085E191E0E42FFF2759
:14034200E80FF91F00810E943B0143954630A0F349910895E1
:140356004A9344270AC08FE091E0E42FFF27E80FF91F0081D8
:14036A000E943B0143954630A0F344270AC087E391E0E42F9D
:14037E00FF27E80FF91F00810E943B0143954730A0F349911B
:1403920008954A9344270AC08FE091E0E42FFF27E80FF91F80
:1403A60000810E943B0143954630A0F344270AC08EE391E0EC
:1403BA00E42FFF27E80FF91F00810E943B0143954730A0F3A6
:1403CE00499108954A9344270AC08FE091E0E42FFF27E80F82
:1403E200F91F00810E943B0143954630A0F344270AC085E411
:1403F60091E0E42FFF27E80FF91F00810E943B01439546308D
:14040A00A0F3499108954A9344270AC08FE091E0E42FFF27A9
:14041E00E80FF91F00810E943B0143954630A0F344270AC046
:140432008BE491E0E42FFF27E80FF91F00810E943B01439557
:140446004630A0F3499108954A935A93A80122972224332459
:14045A0039822882CA018070892F992780935E01CA019070B9
:14046E0080935F0144270FC08AE591E0E42FFF27E80FF91FA5
:140482002080332448805980420C531C59824882439548301C
:1404960078F38881998180701C01232C3324209262018881F3
:1404AA00998190708093630144270AC08FE091E0E42FFF275F
:1404BE00E80FF91F00810E943B0143954630A0F344270AC0A6
:1404D2008AE591E0E42FFF27E80FF91F00810E943B014395B7
:1404E6004A30A0F322965991499108954A935A932E974427E2
:1404FA0055270AC08FE091E0FA01E80FF91F00810E943B015F
:14050E004F5F5F4F4630E0E05E0790F3442755270AC08BE142
:1405220091E0FA01E80FF91F00810E943B014F5F5F4F463019
:14053600E0E05E0790F32E965991499108954A9344270AC0D2
:14054A008FE091E0E42FFF27E80FF91F00810E943B0143953E
:14055E004630A0F344270AC081E291E0E42FFF27E80FF91F2F
:1405720000810E943B0143954B30A0F3499108954A93442771
:140586000AC08FE091E0E42FFF27E80FF91F00810E943B0110
:14059A0043954630A0F344270AC08CE291E0E42FFF27E80F28
:1405AE00F91F00810E943B0143954B30A0F3499108950E94C3
:1405C20066055801249780E0888389838A838B83C50180705E
:1405D6001C01232C332420925601C501907080935701AA2446
:1405EA0017C081E591E0EA2DFF27E80FF91F208033244424A4
:1405FE005524688079808A809B80620C731C841C951C688232
:1406120079828A829B82A3948A2D873030F340E05FEF60E03A
:1406260070E0088119812A813B81042315232623372388E07C
:14063A0090E08A930E947405009358014FEF50E060E070E01A
:14064E00288039804A805B8024223522462257222092590108
:14066200AA240AC08FE091E0EA2DFF27E80FF91F00810E949D
:140676003B01A3948A2D863098F3AA240AC081E591E0EA2D7F
:14068A00FF27E80FF91F00810E943B01A3948A2D893098F396
:14069E0024960C946D05AA92CA92C02EAA240AC00E94550166
:1406B20081E791E0EA2DFF27E80FF91F0083A394AC14A0F302
:1406C600C990A9900895AA92BA9258010E94250501E00E94C1
:1406DA00DB041DDE0CE0E1DF20907A012220C9F702E00E94D5
:1406EE00DB0432DE0CE0D7DF10DE0CE0D4DF20907A0122206D
:14070200C9F703E00E94DB0444DE0CE0CADF60DE0CE0C7DF38
:1407160020907A01222011F0002714C085014DDF0CE0BDDF2C
:14072A0020907A01222041F080917A018B3011F402E006C029
:14073E00002704C004E00E94DB0401E0B990A99008950E94B5
:14075200250501E00E94DB04DEDD0CE0A2DF20907A01222072
:14076600C9F702E00E94DB04F3DD0CE098DFE7DE00E195DF0F
:14077A0020907A01222059F003E00E94DB0480917A0189300C
:14078E0011F402E003C0002701C001E0089501E001C000277E
:1407A2000895AA92BA9258010CE611E00E94130185010E9404
:1407B600130107E611E00E941301B990A990089504E611E08D
:1407CA000C9413010E94660544278EEF88BB8FE087BB66B365
:1407DE00607F603F79F101E00E94C50466B3607F603F41F10A
:1407F20066B3A62EBB24C5018E3BE0E09E07E9F08EEB8A1542
:140806009B0534F0C5018E37E0E09E07B1F016C0C5018E3D22
:14081A00E0E09E0761F08E3DE0E09E076CF0C5018E3EE0E036
:14082E009E0709F007C041E305C042E303C043E301C041E474
:140842008DEF88BB8FE087BB66B3607F603F79F101E00E94AE
:14085600C50466B3607F603F41F166B3A62EBB24C5018D3BA2
:14086A00E0E09E07E9F08DEB8A159B0534F0C5018D37E0E017
:14087E009E07B1F016C0C5018D3DE0E09E0761F08D3DE0E07A
:140892009E076CF0C5018D3EE0E09E0709F007C044E305C0AF
:1408A60045E303C046E301C042E48BEF88BB8FE087BB66B3BC
:1408BA00607F603F79F101E00E94C50466B3607F603F41F12D
:1408CE0066B3A62EBB24C5018B3BE0E09E07E9F08BEB8A156B
:1408E2009B0534F0C5018B37E0E09E07B1F016C0C5018B3D4C
:1408F600E0E09E0761F08B3DE0E09E076CF0C5018B3EE0E060
:14090A009E0709F007C047E305C048E303C049E301C043E483
:14091E0087EF88BB8FE087BB66B3607F603F59F101E00E94F7
:14093200C50466B3607F603F21F166B37727673BE0E07E07A1
:14094600D9F087EB90E0861797072CF06737E0E07E07A1F027
:14095A0014C0673DE0E07E0759F0673DE0E07E0764F0673EA1
:14096E00E0E07E0709F007C04AE205C040E303C043E201C0B3
:1409820044E4042F0C946D054A936A930DC04FEF07C06FEFEA
:1409960001C06A9580E08617E0F34A9580E08417B0F30A95A1
:1409AA0080E0801780F36991499108954A935A93402F5527A9
:1409BE004130E0E05E0769F04230E0E05E0761F04330E0E01B
:1409D2005E0759F04430E0E05E0751F00BC0D89AD09A08C01A
:1409E600D99AD19A05C0DA9AD29A02C0DB9AD39A5991499112
:1409FA0008954A935A93402F55274130E0E05E0769F0423036
:140A0E00E0E05E0761F04330E0E05E0759F04430E0E05E07E4
:140A220051F00BC0D898D09808C0D998D19805C0DA98D29899
:140A360002C0DB98D3985991499108958FE08BBB8ABB089514
:140A4A0022242BBA8FE08ABB0895AA92A02E07C0F3DF0AE08F
:140A5E0095DFF4DF0AE092DFAA9480E08A15B0F3A99008952C
:140A720022242BBA2ABA28BA27BA25BA24BA22BA21BA23B84F
:140A860022B820926200209261002092650020926400089591
:140A9A00F89422242CBE20926D00E6DF05E010E00E94E10050
:140AAE000BE010E00E942801222425BE20926A002ABE29BE7A
:140AC20027BE20927D00789408957A936A935A934A93BA9243
:140AD600AA920895A990B990499159916991799108950F92AB
:140AEA000990002031F036952795179507950A94F8CF0F904B
:020AFE00089559
:00000001FF
