:040000000C947100EB
:14008C00EF01FFFFFFFF0100030100050100031D0021010027
:1400A000080401000003A100B20100080401000000130021A7
:1400B400010004020100080100040202000901000305000904
:1400C8000100030D00110100060601000B00190100070C00BC
:0500DC0000000100001E
:1400E200CFEFD0E1CDBFDEBFCE51D0400AEA08830024E5E5D6
:1400F600F1E011E0ED36F10711F00192FBCF0083ECE8F0E094
:14010A00A0E0B1E010E000E00BBFE13EF10721F0C8953196EA
:14011E000D92F9CF0E949400FFCF05E010E00E949A00FFCF83
:1401320008951801232C33242092900009B988E18AB98EE03F
:140146008093950008955D9BFECF0CB908955D9BFECF50988C
:14015A0010FF01C0509A0CB908955F9BFECF0CB108954A9377
:14016E005F9BFECF4BB10AB12CB1842F80718C6019F00FEF8B
:140182001FEF04C006950170102F022F499108954A935A93DA
:14019600A80105C0FA010081D6DF4F5F5F4FFA01208022207D
:1401AA00B9F759914991089501C00CB15F99FDCF0895180138
:1401BE00232C3324209298000093990088E180939A008CE08F
:1401D20080939D00089520909B0025FEFCCF00939C000895C7
:1401E60020909B0025FEFCCF80919A008E7F80939A0010FF58
:1401FA0005C080919A00816080939A0000939C000895209077
:14020E009B0027FEFCCF00919C0008954A9320909B0027FE3A
:14022200FCCF40919B0000919A0020919C00842F80718C6089
:1402360019F00FEF1FEF04C006950170102F022F49910895E8
:14024A004A935A93A80105C0FA010081C0DF4F5F5F4FFA01F6
:14025E0020802220B9F759914991089502C000919C002090FA
:140272009B0027FCFACF08954A9344270AC080E091E0E42F5E
:14028600FF27E80FF91F00810E94EC0043954630A0F34427D4
:14029A000AC086E091E0E42FFF27E80FF91F00810E94EC0058
:1402AE0043954630A0F3499108954A9344270AC080E091E001
:1402C200E42FFF27E80FF91F00810E94EC0043954630A0F3F0
:1402D60044270AC088E291E0E42FFF27E80FF91F00810E9499
:1402EA00EC0043954730A0F3499108954A9344270AC080E049
:1402FE0091E0E42FFF27E80FF91F00810E94EC0043954630D6
:14031200A0F344270AC08FE291E0E42FFF27E80FF91F008164
:140326000E94EC0043954730A0F3499108954A9344270AC0CA
:14033A0080E091E0E42FFF27E80FF91F00810E94EC004395AF
:14034E004630A0F344270AC086E391E0E42FFF27E80FF91F3B
:1403620000810E94EC0043954630A0F3499108954A934427D8
:140376000AC080E091E0E42FFF27E80FF91F00810E94EC0081
:14038A0043954630A0F344270AC08CE391E0E42FFF27E80F39
:14039E00F91F00810E94EC0043954630A0F3499108954A93EF
:1403B2005A93A80122972224332439822882CA018070892F73
:1403C600992780934F01CA0190708093500144270FC08BE428
:1403DA0091E0E42FFF27E80FF91F2080332448805980420C70
:1403EE00531C598248824395483078F38881998180701C01FC
:14040200232C33242092530188819981907080935401442744
:140416000AC080E091E0E42FFF27E80FF91F00810E94EC00E0
:14042A0043954630A0F344270AC08BE491E0E42FFF27E80F98
:14043E00F91F00810E94EC0043954A30A0F322965991499122
:1404520008954A935A932E97442755270AC080E091E0FA01ED
:14046600E80FF91F00810E94EC004F5F5F4F4630E0E05E076D
:14047A0090F3442755270AC08CE091E0FA01E80FF91F0081D2
:14048E000E94EC004F5F5F4F4630E0E05E0790F32E965991A4
:1404A200499108954A9344270AC080E091E0E42FFF27E80FBC
:1404B600F91F00810E94EC0043954630A0F344270AC082E192
:1404CA0091E0E42FFF27E80FF91F00810E94EC0043954B3003
:1404DE00A0F3499108954A9344270AC080E091E0E42FFF27E4
:1404F200E80FF91F00810E94EC0043954630A0F344270AC0C2
:140506008DE191E0E42FFF27E80FF91F00810E94EC004395D3
:14051A004B30A0F3499108950E943503A22EC02E249780E095
:14052E00888389838A838B83C0924701A0924801AA2417C0CD
:1405420082E491E0EA2DFF27E80FF91F2080332444245524AA
:14055600688079808A809B80620C731C841C951C6882798258
:14056A008A829B82A3948A2D873030F340E05FEF60E070E08E
:14057E00088119812A813B81042315232623372388E090E005
:140592008A930E944703009349014FEF50E060E070E02880C9
:1405A60039804A805B80242235224622572220924A01AA249A
:1405BA000AC080E091E0EA2DFF27E80FF91F00810E94EC0037
:1405CE00A3948A2D863098F3AA240AC082E491E0EA2DFF273E
:1405E200E80FF91F00810E94EC00A3948A2D893098F32496FB
:1405F6000C943E03AA92CA92C02EAA240AC00E94060185E5DF
:14060A0091E0EA2DFF27E80FF91F0083A394AC14A0F3C990B9
:14061E00A9900895AA92CA92C22EA02E27DE0CE0E5DF209037
:140632005E012220C9F73FDE0CE0DEDF1DDE0CE0DBDF20903C
:140646005E012220C9F754DE0CE0D4DF70DE0CE0D1DF2C2D2B
:14065A000A2D62DF0CE0CCDF0027C990A99008957A936A931D
:14066E005A934A93DA92CA92BA92AA920895A990B990C990E6
:14068200D990499159916991799108950F920990002031F01B
:1006960036952795179507950A94F8CF0F900895E4
:00000001FF
